{
  "_format": "hh-sol-artifact-1",
  "contractName": "Stake",
  "sourceName": "contracts/Stake.sol",
  "abi": [
    {
      "inputs": [
        {
          "internalType": "address",
          "name": "_depositToken",
          "type": "address"
        }
      ],
      "stateMutability": "nonpayable",
      "type": "constructor"
    },
    {
      "inputs": [
        {
          "internalType": "address",
          "name": "owner",
          "type": "address"
        }
      ],
      "name": "OwnableInvalidOwner",
      "type": "error"
    },
    {
      "inputs": [
        {
          "internalType": "address",
          "name": "account",
          "type": "address"
        }
      ],
      "name": "OwnableUnauthorizedAccount",
      "type": "error"
    },
    {
      "anonymous": false,
      "inputs": [
        {
          "indexed": true,
          "internalType": "address",
          "name": "previousOwner",
          "type": "address"
        },
        {
          "indexed": true,
          "internalType": "address",
          "name": "newOwner",
          "type": "address"
        }
      ],
      "name": "OwnershipTransferred",
      "type": "event"
    },
    {
      "inputs": [],
      "name": "REWARD_PER_BLOCK",
      "outputs": [
        {
          "internalType": "uint256",
          "name": "",
          "type": "uint256"
        }
      ],
      "stateMutability": "view",
      "type": "function"
    },
    {
      "inputs": [],
      "name": "accRewardPerShare",
      "outputs": [
        {
          "internalType": "uint256",
          "name": "",
          "type": "uint256"
        }
      ],
      "stateMutability": "view",
      "type": "function"
    },
    {
      "inputs": [],
      "name": "depositToken",
      "outputs": [
        {
          "internalType": "contract DepositToken",
          "name": "",
          "type": "address"
        }
      ],
      "stateMutability": "view",
      "type": "function"
    },
    {
      "inputs": [],
      "name": "lastRewardBlock",
      "outputs": [
        {
          "internalType": "uint256",
          "name": "",
          "type": "uint256"
        }
      ],
      "stateMutability": "view",
      "type": "function"
    },
    {
      "inputs": [],
      "name": "owner",
      "outputs": [
        {
          "internalType": "address",
          "name": "",
          "type": "address"
        }
      ],
      "stateMutability": "view",
      "type": "function"
    },
    {
      "inputs": [
        {
          "internalType": "address",
          "name": "_user",
          "type": "address"
        }
      ],
      "name": "pendingRewards",
      "outputs": [
        {
          "internalType": "uint256",
          "name": "",
          "type": "uint256"
        }
      ],
      "stateMutability": "view",
      "type": "function"
    },
    {
      "inputs": [],
      "name": "renounceOwnership",
      "outputs": [],
      "stateMutability": "nonpayable",
      "type": "function"
    },
    {
      "inputs": [
        {
          "internalType": "uint256",
          "name": "_amount",
          "type": "uint256"
        },
        {
          "internalType": "address",
          "name": "_user",
          "type": "address"
        }
      ],
      "name": "stake",
      "outputs": [],
      "stateMutability": "nonpayable",
      "type": "function"
    },
    {
      "inputs": [
        {
          "internalType": "uint256",
          "name": "_amount",
          "type": "uint256"
        },
        {
          "internalType": "address",
          "name": "_user",
          "type": "address"
        }
      ],
      "name": "topUpDTBalance",
      "outputs": [],
      "stateMutability": "nonpayable",
      "type": "function"
    },
    {
      "inputs": [],
      "name": "totalStaked",
      "outputs": [
        {
          "internalType": "uint256",
          "name": "",
          "type": "uint256"
        }
      ],
      "stateMutability": "view",
      "type": "function"
    },
    {
      "inputs": [
        {
          "internalType": "address",
          "name": "newOwner",
          "type": "address"
        }
      ],
      "name": "transferOwnership",
      "outputs": [],
      "stateMutability": "nonpayable",
      "type": "function"
    },
    {
      "inputs": [
        {
          "internalType": "address",
          "name": "",
          "type": "address"
        }
      ],
      "name": "userInfo",
      "outputs": [
        {
          "internalType": "uint256",
          "name": "amount",
          "type": "uint256"
        },
        {
          "internalType": "uint256",
          "name": "rewardDebt",
          "type": "uint256"
        }
      ],
      "stateMutability": "view",
      "type": "function"
    },
    {
      "inputs": [
        {
          "internalType": "uint256",
          "name": "_amount",
          "type": "uint256"
        },
        {
          "internalType": "address",
          "name": "_user",
          "type": "address"
        }
      ],
      "name": "withdraw",
      "outputs": [],
      "stateMutability": "nonpayable",
      "type": "function"
    }
  ],
  "bytecode": "0x6080604052678ac7230489e8000060025534801561001c57600080fd5b50604051611047380380611047833981810160405281019061003e9190610236565b33600073ffffffffffffffffffffffffffffffffffffffff168173ffffffffffffffffffffffffffffffffffffffff16036100b15760006040517f1e4fbdf70000000000000000000000000000000000000000000000000000000081526004016100a89190610272565b60405180910390fd5b6100c08161010f60201b60201c565b5080600160006101000a81548173ffffffffffffffffffffffffffffffffffffffff021916908373ffffffffffffffffffffffffffffffffffffffff160217905550436003819055505061028d565b60008060009054906101000a900473ffffffffffffffffffffffffffffffffffffffff169050816000806101000a81548173ffffffffffffffffffffffffffffffffffffffff021916908373ffffffffffffffffffffffffffffffffffffffff1602179055508173ffffffffffffffffffffffffffffffffffffffff168173ffffffffffffffffffffffffffffffffffffffff167f8be0079c531659141344cd1fd0a4f28419497f9722a3daafe3b4186f6b6457e060405160405180910390a35050565b600080fd5b600073ffffffffffffffffffffffffffffffffffffffff82169050919050565b6000610203826101d8565b9050919050565b610213816101f8565b811461021e57600080fd5b50565b6000815190506102308161020a565b92915050565b60006020828403121561024c5761024b6101d3565b5b600061025a84828501610221565b91505092915050565b61026c816101f8565b82525050565b60006020820190506102876000830184610263565b92915050565b610dab8061029c6000396000f3fe608060405234801561001057600080fd5b50600436106100ce5760003560e01c80638da5cb5b1161008c578063a9f8d18111610066578063a9f8d181146101ee578063adfcd5dd1461020c578063c89039c514610228578063f2fde38b14610246576100ce565b80638da5cb5b14610194578063939d6237146101b2578063975532dc146101d0576100ce565b8062f714ce146100d35780631959a002146100ef57806331d7a26214610120578063715018a6146101505780637acb77571461015a578063817b1cd214610176575b600080fd5b6100ed60048036038101906100e89190610a13565b610262565b005b61010960048036038101906101049190610a53565b6103fa565b604051610117929190610a8f565b60405180910390f35b61013a60048036038101906101359190610a53565b61041e565b6040516101479190610ab8565b60405180910390f35b61015861049b565b005b610174600480360381019061016f9190610a13565b6104af565b005b61017e610608565b60405161018b9190610ab8565b60405180910390f35b61019c61060e565b6040516101a99190610ae2565b60405180910390f35b6101ba610637565b6040516101c79190610ab8565b60405180910390f35b6101d861063d565b6040516101e59190610ab8565b60405180910390f35b6101f6610643565b6040516102039190610ab8565b60405180910390f35b61022660048036038101906102219190610a13565b610649565b005b6102306106ff565b60405161023d9190610b5c565b60405180910390f35b610260600480360381019061025b9190610a53565b610725565b005b61026a6107ab565b610272610832565b6000600660008373ffffffffffffffffffffffffffffffffffffffff1673ffffffffffffffffffffffffffffffffffffffff16815260200190815260200160002090506000816001015464e8d4a5100060045484600001546102d49190610ba6565b6102de9190610c17565b6102e89190610c48565b9050838260000160008282546102fe9190610c48565b9250508190555064e8d4a51000600454836000015461031d9190610ba6565b6103279190610c17565b826001018190555083600560008282546103419190610c48565b92505081905550600160009054906101000a900473ffffffffffffffffffffffffffffffffffffffff1673ffffffffffffffffffffffffffffffffffffffff1663a9059cbb8483876103939190610c7c565b6040518363ffffffff1660e01b81526004016103b0929190610cb0565b6020604051808303816000875af11580156103cf573d6000803e3d6000fd5b505050506040513d601f19601f820116820180604052508101906103f39190610d11565b5050505050565b60066020528060005260406000206000915090508060000154908060010154905082565b600080600660008473ffffffffffffffffffffffffffffffffffffffff1673ffffffffffffffffffffffffffffffffffffffff1681526020019081526020016000209050806001015464e8d4a51000600454836000015461047f9190610ba6565b6104899190610c17565b6104939190610c48565b915050919050565b6104a36107ab565b6104ad60006108ae565b565b6104b76107ab565b6104bf610832565b6000600660008373ffffffffffffffffffffffffffffffffffffffff1673ffffffffffffffffffffffffffffffffffffffff1681526020019081526020016000209050600160009054906101000a900473ffffffffffffffffffffffffffffffffffffffff1673ffffffffffffffffffffffffffffffffffffffff166323b872dd3330866040518463ffffffff1660e01b815260040161056193929190610d3e565b6020604051808303816000875af1158015610580573d6000803e3d6000fd5b505050506040513d601f19601f820116820180604052508101906105a49190610d11565b50828160000160008282546105b99190610c7c565b9250508190555064e8d4a5100060045482600001546105d89190610ba6565b6105e29190610c17565b816001018190555082600560008282546105fc9190610c7c565b92505081905550505050565b60055481565b60008060009054906101000a900473ffffffffffffffffffffffffffffffffffffffff16905090565b60045481565b60025481565b60035481565b6106516107ab565b610659610832565b6000600660008373ffffffffffffffffffffffffffffffffffffffff1673ffffffffffffffffffffffffffffffffffffffff1681526020019081526020016000209050828160000160008282546106b09190610c7c565b9250508190555064e8d4a5100060045482600001546106cf9190610ba6565b6106d99190610c17565b816001018190555082600560008282546106f39190610c7c565b92505081905550505050565b600160009054906101000a900473ffffffffffffffffffffffffffffffffffffffff1681565b61072d6107ab565b600073ffffffffffffffffffffffffffffffffffffffff168173ffffffffffffffffffffffffffffffffffffffff160361079f5760006040517f1e4fbdf70000000000000000000000000000000000000000000000000000000081526004016107969190610ae2565b60405180910390fd5b6107a8816108ae565b50565b6107b3610972565b73ffffffffffffffffffffffffffffffffffffffff166107d161060e565b73ffffffffffffffffffffffffffffffffffffffff1614610830576107f4610972565b6040517f118cdaa70000000000000000000000000000000000000000000000000000000081526004016108279190610ae2565b60405180910390fd5b565b60006005540361084857436003819055506108ac565b6000600354436108589190610c48565b905060006002548261086a9190610ba6565b905060055464e8d4a51000826108809190610ba6565b61088a9190610c17565b6004600082825461089b9190610c7c565b925050819055504360038190555050505b565b60008060009054906101000a900473ffffffffffffffffffffffffffffffffffffffff169050816000806101000a81548173ffffffffffffffffffffffffffffffffffffffff021916908373ffffffffffffffffffffffffffffffffffffffff1602179055508173ffffffffffffffffffffffffffffffffffffffff168173ffffffffffffffffffffffffffffffffffffffff167f8be0079c531659141344cd1fd0a4f28419497f9722a3daafe3b4186f6b6457e060405160405180910390a35050565b600033905090565b600080fd5b6000819050919050565b6109928161097f565b811461099d57600080fd5b50565b6000813590506109af81610989565b92915050565b600073ffffffffffffffffffffffffffffffffffffffff82169050919050565b60006109e0826109b5565b9050919050565b6109f0816109d5565b81146109fb57600080fd5b50565b600081359050610a0d816109e7565b92915050565b60008060408385031215610a2a57610a2961097a565b5b6000610a38858286016109a0565b9250506020610a49858286016109fe565b9150509250929050565b600060208284031215610a6957610a6861097a565b5b6000610a77848285016109fe565b91505092915050565b610a898161097f565b82525050565b6000604082019050610aa46000830185610a80565b610ab16020830184610a80565b9392505050565b6000602082019050610acd6000830184610a80565b92915050565b610adc816109d5565b82525050565b6000602082019050610af76000830184610ad3565b92915050565b6000819050919050565b6000610b22610b1d610b18846109b5565b610afd565b6109b5565b9050919050565b6000610b3482610b07565b9050919050565b6000610b4682610b29565b9050919050565b610b5681610b3b565b82525050565b6000602082019050610b716000830184610b4d565b92915050565b7f4e487b7100000000000000000000000000000000000000000000000000000000600052601160045260246000fd5b6000610bb18261097f565b9150610bbc8361097f565b9250828202610bca8161097f565b91508282048414831517610be157610be0610b77565b5b5092915050565b7f4e487b7100000000000000000000000000000000000000000000000000000000600052601260045260246000fd5b6000610c228261097f565b9150610c2d8361097f565b925082610c3d57610c3c610be8565b5b828204905092915050565b6000610c538261097f565b9150610c5e8361097f565b9250828203905081811115610c7657610c75610b77565b5b92915050565b6000610c878261097f565b9150610c928361097f565b9250828201905080821115610caa57610ca9610b77565b5b92915050565b6000604082019050610cc56000830185610ad3565b610cd26020830184610a80565b9392505050565b60008115159050919050565b610cee81610cd9565b8114610cf957600080fd5b50565b600081519050610d0b81610ce5565b92915050565b600060208284031215610d2757610d2661097a565b5b6000610d3584828501610cfc565b91505092915050565b6000606082019050610d536000830186610ad3565b610d606020830185610ad3565b610d6d6040830184610a80565b94935050505056fea264697066735822122046fe987e4a7f4e0cf101f7540340761cd7305fe9556e8a5893c0f322db15ecce64736f6c634300081c0033",
  "linkReferences": {},
  "deployedLinkReferences": {}
}